:100000000108A9B2B4B0AFA2113474801154116EBA
:100010001188114D74821154116E1188114D74C0E4
:100020001154116E1188114D74C21154116E118842
:10003000114D80D674381154117F740E1154117FF4
:1000400074011154117F74801154117F22740111B5
:1000500054117F22F58075A001117B75A000117BE2
:1000600022F58075A003117B75A002117B22900000
:10007000027F06E4931161A3DFF922000000227DD4
:0F008000047E32DEFEDDFA227B04117FDBFC22E0
:00000001FF
